:100000000C945C000C9479000C9479000C947900A9
:100010000C9479000C9479000C9479000C9479007C
:100020000C9479000C9479000C9479000C9479006C
:100030000C9479000C9479000C9479000C9479005C
:100040000C94DF000C9479000C9479000C947900E6
:100050000C9479000C9479000C9479000C9479003C
:100060000C9479000C947900000000080002010053
:100070000003040700000000000000000000000072
:10008000250028002B0000000000240027002A0083
:10009000040404040404040402020202020203032E
:1000A0000303030301020408102040800102040836
:1000B000102001020408102011241FBECFEFD8E049
:1000C000DEBFCDBF11E0A0E0B1E0EAEBF4E002C09A
:1000D00005900D92A030B107D9F721E0A0E0B1E082
:1000E00001C01D92AB30B207E1F70E9429010C94C8
:1000F0005B020C940000E7EAF0E02491E3E9F0E011
:100100008491882399F090E0880F991FFC01EA57A9
:10011000FF4FA591B491FC01E458FF4F8591949154
:100120008FB7F894EC91E22BEC938FBF0895EBE638
:10013000F0E02491E7EAF0E09491E3E9F0E0E49163
:10014000EE2309F43BC0222339F1233091F038F437
:100150002130A9F0223001F524B52F7D12C02730BF
:1001600091F02830A1F02430B9F4209180002F7D47
:1001700003C0209180002F77209380000DC024B50C
:100180002F7724BD09C02091B0002F7703C02091A4
:10019000B0002F7D2093B000F0E0EE0FFF1FE45879
:1001A000FF4FA591B4912FB7F894EC91811103C042
:1001B00090959E2301C09E2B9C932FBF08951F9264
:1001C0000F920FB60F9211242F933F938F939F930B
:1001D000AF93BF938091070190910801A09109010D
:1001E000B0910A013091060123E0230F2D3720F44E
:1001F0000196A11DB11D05C026E8230F0296A11D81
:10020000B11D209306018093070190930801A093EC
:100210000901B0930A018091020190910301A0911C
:100220000401B09105010196A11DB11D8093020149
:1002300090930301A0930401B0930501BF91AF9186
:100240009F918F913F912F910F900FBE0F901F9014
:100250001895CF93DF9300D000D0CDB7DEB7789458
:1002600084B5826084BD84B5816084BD85B58260BB
:1002700085BD85B5816085BD80916E00816080936C
:100280006E001092810080918100826080938100D5
:1002900080918100816080938100809180008160E5
:1002A000809380008091B10084608093B100809140
:1002B000B00081608093B00080917A008460809368
:1002C0007A0080917A00826080937A0080917A002F
:1002D000816080937A0080917A00806880937A00B0
:1002E0001092C1000E947B0088248A9483E0982E9B
:1002F000A12CB12C9BE6692E90E0792E00E010E055
:1003000020E4D22ED0927C0080917A008064809389
:100310007A0080917A0086FDFCCFA09178008091D0
:100320007900B0E0B82B2FEF30E00E945402A50115
:1003300094010E940402790130930101209300018D
:1003400029833A834B835C830E947B0029813A8115
:100350004B815C81211531054105510511F480E087
:1003600006C02F3F31054105510521F481E00E946F
:10037000970043C0F30184918330F9F048F4813051
:10038000B9F08230A1F584B5806284BD28BD35C046
:100390008730E9F0883019F1843049F58091800088
:1003A00080628093800030938B0020938A0025C068
:1003B00084B5806884BD27BD20C08091800080689E
:1003C00080938000309389002093880016C080912C
:1003D000B00080688093B0002093B3000EC080917D
:1003E000B00080628093B0002093B40006C0F0E8B3
:1003F000EF16F1040CF0BACFB2CF0115110509F4D4
:1004000081CF0E9400007ECF052E97FB1EF4009442
:100410000E941B0257FD07D00E94230207FC03D055
:100420004EF40C941B0250954095309521953F4F0A
:100430004F4F5F4F089590958095709561957F4FD0
:100440008F4F9F4F0895A1E21A2EAA1BBB1BFD01DF
:100450000DC0AA1FBB1FEE1FFF1FA217B307E407A3
:10046000F50720F0A21BB30BE40BF50B661F771FFB
:10047000881F991F1A9469F76095709580959095DB
:100480009B01AC01BD01CF010895A29FB001B39FB4
:10049000C001A39F700D811D1124911DB29F700D8D
:1004A000811D1124911D08950E944502B7FF0895F2
:0A04B000821B930B0895F894FFCF10
:00000001FF
